{
	"01_hello.sol": {
		"VendingMachine": {
			"abi": [
				{
					"inputs": [],
					"stateMutability": "nonpayable",
					"type": "constructor"
				},
				{
					"inputs": [],
					"name": "buySoda",
					"outputs": [],
					"stateMutability": "payable",
					"type": "function"
				},
				{
					"inputs": [],
					"name": "getBalance",
					"outputs": [
						{
							"internalType": "uint256",
							"name": "",
							"type": "uint256"
						}
					],
					"stateMutability": "view",
					"type": "function"
				},
				{
					"inputs": [],
					"name": "owner",
					"outputs": [
						{
							"internalType": "address",
							"name": "",
							"type": "address"
						}
					],
					"stateMutability": "view",
					"type": "function"
				},
				{
					"inputs": [
						{
							"internalType": "uint256",
							"name": "_amount",
							"type": "uint256"
						}
					],
					"name": "restock",
					"outputs": [],
					"stateMutability": "nonpayable",
					"type": "function"
				},
				{
					"inputs": [],
					"name": "sodaInventory",
					"outputs": [
						{
							"internalType": "uint256",
							"name": "",
							"type": "uint256"
						}
					],
					"stateMutability": "view",
					"type": "function"
				},
				{
					"inputs": [
						{
							"internalType": "address",
							"name": "",
							"type": "address"
						}
					],
					"name": "sodapurchased",
					"outputs": [
						{
							"internalType": "uint256",
							"name": "sodaBought",
							"type": "uint256"
						},
						{
							"internalType": "uint256",
							"name": "lastPurchased",
							"type": "uint256"
						},
						{
							"internalType": "bool",
							"name": "vip",
							"type": "bool"
						}
					],
					"stateMutability": "view",
					"type": "function"
				},
				{
					"inputs": [],
					"name": "withdrawProfits",
					"outputs": [],
					"stateMutability": "nonpayable",
					"type": "function"
				}
			],
			"devdoc": {
				"details": "A simple contract to simulate a vending machine that sells \"Digital Sodas\".",
				"kind": "dev",
				"methods": {
					"buySoda()": {
						"details": "Allows anyone to buy a soda by sending exactly 0.01 ETH."
					},
					"getBalance()": {
						"details": "Allows the owner to see the current Ether balance of the machine."
					},
					"restock(uint256)": {
						"details": "Allows the owner to restock the machine.",
						"params": {
							"_amount": "The number of sodas to add to the inventory."
						}
					},
					"withdrawProfits()": {
						"details": "Allows the owner to withdraw all collected profits."
					}
				},
				"title": "VendingMachine",
				"version": 1
			},
			"evm": {
				"assembly": "    /* \"01_hello.sol\":175:2429  contract VendingMachine {... */\n  mstore(0x40, 0x80)\n    /* \"01_hello.sol\":603:706  constructor() {... */\n  callvalue\n  dup1\n  iszero\n  tag_1\n  jumpi\n  revert(0x00, 0x00)\ntag_1:\n  pop\n    /* \"01_hello.sol\":635:645  msg.sender */\n  caller\n    /* \"01_hello.sol\":627:632  owner */\n  0x00\n  0x00\n    /* \"01_hello.sol\":627:645  owner = msg.sender */\n  0x0100\n  exp\n  dup2\n  sload\n  dup2\n  0xffffffffffffffffffffffffffffffffffffffff\n  mul\n  not\n  and\n  swap1\n  dup4\n  0xffffffffffffffffffffffffffffffffffffffff\n  and\n  mul\n  or\n  swap1\n  sstore\n  pop\n    /* \"01_hello.sol\":671:674  100 */\n  0x64\n    /* \"01_hello.sol\":655:668  sodaInventory */\n  0x01\n    /* \"01_hello.sol\":655:674  sodaInventory = 100 */\n  dup2\n  swap1\n  sstore\n  pop\n    /* \"01_hello.sol\":175:2429  contract VendingMachine {... */\n  dataSize(sub_0)\n  dup1\n  dataOffset(sub_0)\n  0x00\n  codecopy\n  0x00\n  return\nstop\n\nsub_0: assembly {\n        /* \"01_hello.sol\":175:2429  contract VendingMachine {... */\n      mstore(0x40, 0x80)\n      jumpi(tag_1, lt(calldatasize, 0x04))\n      shr(0xe0, calldataload(0x00))\n      dup1\n      0x39913e09\n      gt\n      tag_9\n      jumpi\n      dup1\n      0x39913e09\n      eq\n      tag_5\n      jumpi\n      dup1\n      0x3db8cbcc\n      eq\n      tag_6\n      jumpi\n      dup1\n      0x8da5cb5b\n      eq\n      tag_7\n      jumpi\n      dup1\n      0xc21a702a\n      eq\n      tag_8\n      jumpi\n      jump(tag_1)\n    tag_9:\n      dup1\n      0x0ea6991a\n      eq\n      tag_2\n      jumpi\n      dup1\n      0x12065fe0\n      eq\n      tag_3\n      jumpi\n      dup1\n      0x2470b2a0\n      eq\n      tag_4\n      jumpi\n    tag_1:\n      revert(0x00, 0x00)\n        /* \"01_hello.sol\":471:521  mapping (address => customer) public sodapurchased */\n    tag_2:\n      callvalue\n      dup1\n      iszero\n      tag_10\n      jumpi\n      revert(0x00, 0x00)\n    tag_10:\n      pop\n      tag_11\n      0x04\n      dup1\n      calldatasize\n      sub\n      dup2\n      add\n      swap1\n      tag_12\n      swap2\n      swap1\n      tag_13\n      jump\t// in\n    tag_12:\n      tag_14\n      jump\t// in\n    tag_11:\n      mload(0x40)\n      tag_15\n      swap4\n      swap3\n      swap2\n      swap1\n      tag_16\n      jump\t// in\n    tag_15:\n      mload(0x40)\n      dup1\n      swap2\n      sub\n      swap1\n      return\n        /* \"01_hello.sol\":1726:1820  function getBalance() public view returns (uint) {... */\n    tag_3:\n      callvalue\n      dup1\n      iszero\n      tag_17\n      jumpi\n      revert(0x00, 0x00)\n    tag_17:\n      pop\n      tag_18\n      tag_19\n      jump\t// in\n    tag_18:\n      mload(0x40)\n      tag_20\n      swap2\n      swap1\n      tag_21\n      jump\t// in\n    tag_20:\n      mload(0x40)\n      dup1\n      swap2\n      sub\n      swap1\n      return\n        /* \"01_hello.sol\":340:365  uint public sodaInventory */\n    tag_4:\n      callvalue\n      dup1\n      iszero\n      tag_22\n      jumpi\n      revert(0x00, 0x00)\n    tag_22:\n      pop\n      tag_23\n      tag_24\n      jump\t// in\n    tag_23:\n      mload(0x40)\n      tag_25\n      swap2\n      swap1\n      tag_21\n      jump\t// in\n    tag_25:\n      mload(0x40)\n      dup1\n      swap2\n      sub\n      swap1\n      return\n        /* \"01_hello.sol\":2152:2427  function withdrawProfits() public onlyOwner {... */\n    tag_5:\n      callvalue\n      dup1\n      iszero\n      tag_26\n      jumpi\n      revert(0x00, 0x00)\n    tag_26:\n      pop\n      tag_27\n      tag_28\n      jump\t// in\n    tag_27:\n      stop\n        /* \"01_hello.sol\":989:1626  function buySoda() public payable {... */\n    tag_6:\n      tag_29\n      tag_30\n      jump\t// in\n    tag_29:\n      stop\n        /* \"01_hello.sol\":260:280  address public owner */\n    tag_7:\n      callvalue\n      dup1\n      iszero\n      tag_31\n      jumpi\n      revert(0x00, 0x00)\n    tag_31:\n      pop\n      tag_32\n      tag_33\n      jump\t// in\n    tag_32:\n      mload(0x40)\n      tag_34\n      swap2\n      swap1\n      tag_35\n      jump\t// in\n    tag_34:\n      mload(0x40)\n      dup1\n      swap2\n      sub\n      swap1\n      return\n        /* \"01_hello.sol\":1962:2066  function restock(uint _amount) public onlyOwner {... */\n    tag_8:\n      callvalue\n      dup1\n      iszero\n      tag_36\n      jumpi\n      revert(0x00, 0x00)\n    tag_36:\n      pop\n      tag_37\n      0x04\n      dup1\n      calldatasize\n      sub\n      dup2\n      add\n      swap1\n      tag_38\n      swap2\n      swap1\n      tag_39\n      jump\t// in\n    tag_38:\n      tag_40\n      jump\t// in\n    tag_37:\n      stop\n        /* \"01_hello.sol\":471:521  mapping (address => customer) public sodapurchased */\n    tag_14:\n      mstore(0x20, 0x02)\n      dup1\n      0x00\n      mstore\n      keccak256(0x00, 0x40)\n      0x00\n      swap2\n      pop\n      swap1\n      pop\n      dup1\n      0x00\n      add\n      sload\n      swap1\n      dup1\n      0x01\n      add\n      sload\n      swap1\n      dup1\n      0x02\n      add\n      0x00\n      swap1\n      sload\n      swap1\n      0x0100\n      exp\n      swap1\n      div\n      0xff\n      and\n      swap1\n      pop\n      dup4\n      jump\t// out\n        /* \"01_hello.sol\":1726:1820  function getBalance() public view returns (uint) {... */\n    tag_19:\n        /* \"01_hello.sol\":1769:1773  uint */\n      0x00\n        /* \"01_hello.sol\":1792:1813  address(this).balance */\n      selfbalance\n        /* \"01_hello.sol\":1785:1813  return address(this).balance */\n      swap1\n      pop\n        /* \"01_hello.sol\":1726:1820  function getBalance() public view returns (uint) {... */\n      swap1\n      jump\t// out\n        /* \"01_hello.sol\":340:365  uint public sodaInventory */\n    tag_24:\n      sload(0x01)\n      dup2\n      jump\t// out\n        /* \"01_hello.sol\":2152:2427  function withdrawProfits() public onlyOwner {... */\n    tag_28:\n        /* \"01_hello.sol\":832:837  owner */\n      0x00\n      0x00\n      swap1\n      sload\n      swap1\n      0x0100\n      exp\n      swap1\n      div\n      0xffffffffffffffffffffffffffffffffffffffff\n      and\n        /* \"01_hello.sol\":818:837  msg.sender == owner */\n      0xffffffffffffffffffffffffffffffffffffffff\n      and\n        /* \"01_hello.sol\":818:828  msg.sender */\n      caller\n        /* \"01_hello.sol\":818:837  msg.sender == owner */\n      0xffffffffffffffffffffffffffffffffffffffff\n      and\n      eq\n        /* \"01_hello.sol\":810:880  require(msg.sender == owner, \"Only the owner can call this function.\") */\n      tag_43\n      jumpi\n      mload(0x40)\n      0x08c379a000000000000000000000000000000000000000000000000000000000\n      dup2\n      mstore\n      0x04\n      add\n      tag_44\n      swap1\n      tag_45\n      jump\t// in\n    tag_44:\n      mload(0x40)\n      dup1\n      swap2\n      sub\n      swap1\n      revert\n    tag_43:\n        /* \"01_hello.sol\":2206:2221  uint256 balance */\n      0x00\n        /* \"01_hello.sol\":2224:2245  address(this).balance */\n      selfbalance\n        /* \"01_hello.sol\":2206:2245  uint256 balance = address(this).balance */\n      swap1\n      pop\n        /* \"01_hello.sol\":2273:2274  0 */\n      0x00\n        /* \"01_hello.sol\":2263:2270  balance */\n      dup2\n        /* \"01_hello.sol\":2263:2274  balance > 0 */\n      gt\n        /* \"01_hello.sol\":2255:2302  require(balance > 0, \"No profits to withdraw.\") */\n      tag_47\n      jumpi\n      mload(0x40)\n      0x08c379a000000000000000000000000000000000000000000000000000000000\n      dup2\n      mstore\n      0x04\n      add\n      tag_48\n      swap1\n      tag_49\n      jump\t// in\n    tag_48:\n      mload(0x40)\n      dup1\n      swap2\n      sub\n      swap1\n      revert\n    tag_47:\n        /* \"01_hello.sol\":2314:2326  bool success */\n      0x00\n        /* \"01_hello.sol\":2340:2345  owner */\n      0x00\n      0x00\n      swap1\n      sload\n      swap1\n      0x0100\n      exp\n      swap1\n      div\n      0xffffffffffffffffffffffffffffffffffffffff\n      and\n        /* \"01_hello.sol\":2332:2351  payable(owner).call */\n      0xffffffffffffffffffffffffffffffffffffffff\n      and\n        /* \"01_hello.sol\":2359:2366  balance */\n      dup3\n        /* \"01_hello.sol\":2332:2371  payable(owner).call{value: balance}(\"\") */\n      mload(0x40)\n      tag_50\n      swap1\n      tag_51\n      jump\t// in\n    tag_50:\n      0x00\n      mload(0x40)\n      dup1\n      dup4\n      sub\n      dup2\n      dup6\n      dup8\n      gas\n      call\n      swap3\n      pop\n      pop\n      pop\n      returndatasize\n      dup1\n      0x00\n      dup2\n      eq\n      tag_54\n      jumpi\n      mload(0x40)\n      swap2\n      pop\n      and(add(returndatasize, 0x3f), not(0x1f))\n      dup3\n      add\n      0x40\n      mstore\n      returndatasize\n      dup3\n      mstore\n      returndatasize\n      0x00\n      0x20\n      dup5\n      add\n      returndatacopy\n      jump(tag_53)\n    tag_54:\n      0x60\n      swap2\n      pop\n    tag_53:\n      pop\n        /* \"01_hello.sol\":2313:2371  (bool success, ) = payable(owner).call{value: balance}(\"\") */\n      pop\n      swap1\n      pop\n        /* \"01_hello.sol\":2389:2396  success */\n      dup1\n        /* \"01_hello.sol\":2381:2420  require(success, \"ETH transfer failed\") */\n      tag_55\n      jumpi\n      mload(0x40)\n      0x08c379a000000000000000000000000000000000000000000000000000000000\n      dup2\n      mstore\n      0x04\n      add\n      tag_56\n      swap1\n      tag_57\n      jump\t// in\n    tag_56:\n      mload(0x40)\n      dup1\n      swap2\n      sub\n      swap1\n      revert\n    tag_55:\n        /* \"01_hello.sol\":2196:2427  {... */\n      pop\n      pop\n        /* \"01_hello.sol\":2152:2427  function withdrawProfits() public onlyOwner {... */\n      jump\t// out\n        /* \"01_hello.sol\":989:1626  function buySoda() public payable {... */\n    tag_30:\n        /* \"01_hello.sol\":1105:1106  0 */\n      0x00\n        /* \"01_hello.sol\":1089:1102  sodaInventory */\n      sload(0x01)\n        /* \"01_hello.sol\":1089:1106  sodaInventory > 0 */\n      gt\n        /* \"01_hello.sol\":1081:1131  require(sodaInventory > 0, \"Sorry, out of stock!\") */\n      tag_59\n      jumpi\n      mload(0x40)\n      0x08c379a000000000000000000000000000000000000000000000000000000000\n      dup2\n      mstore\n      0x04\n      add\n      tag_60\n      swap1\n      tag_61\n      jump\t// in\n    tag_60:\n      mload(0x40)\n      dup1\n      swap2\n      sub\n      swap1\n      revert\n    tag_59:\n        /* \"01_hello.sol\":1229:1236  1 ether */\n      0x0de0b6b3a7640000\n        /* \"01_hello.sol\":1216:1225  msg.value */\n      callvalue\n        /* \"01_hello.sol\":1216:1236  msg.value == 1 ether */\n      eq\n        /* \"01_hello.sol\":1195:1301  require(... */\n      tag_62\n      jumpi\n      mload(0x40)\n      0x08c379a000000000000000000000000000000000000000000000000000000000\n      dup2\n      mstore\n      0x04\n      add\n      tag_63\n      swap1\n      tag_64\n      jump\t// in\n    tag_63:\n      mload(0x40)\n      dup1\n      swap2\n      sub\n      swap1\n      revert\n    tag_62:\n        /* \"01_hello.sol\":1324:1343  customer storage c1 */\n      0x00\n        /* \"01_hello.sol\":1346:1359  sodapurchased */\n      0x02\n        /* \"01_hello.sol\":1346:1371  sodapurchased[msg.sender] */\n      0x00\n        /* \"01_hello.sol\":1360:1370  msg.sender */\n      caller\n        /* \"01_hello.sol\":1346:1371  sodapurchased[msg.sender] */\n      0xffffffffffffffffffffffffffffffffffffffff\n      and\n      0xffffffffffffffffffffffffffffffffffffffff\n      and\n      dup2\n      mstore\n      0x20\n      add\n      swap1\n      dup2\n      mstore\n      0x20\n      add\n      0x00\n      keccak256\n        /* \"01_hello.sol\":1324:1371  customer storage c1 = sodapurchased[msg.sender] */\n      swap1\n      pop\n        /* \"01_hello.sol\":1383:1385  c1 */\n      dup1\n        /* \"01_hello.sol\":1383:1396  c1.sodaBought */\n      0x00\n      add\n      0x00\n        /* \"01_hello.sol\":1383:1399  c1.sodaBought ++ */\n      dup2\n      sload\n      dup1\n      swap3\n      swap2\n      swap1\n      tag_65\n      swap1\n      tag_66\n      jump\t// in\n    tag_65:\n      swap2\n      swap1\n      pop\n      sstore\n      pop\n        /* \"01_hello.sol\":1433:1434  5 */\n      0x05\n        /* \"01_hello.sol\":1416:1418  c1 */\n      dup2\n        /* \"01_hello.sol\":1416:1429  c1.sodaBought */\n      0x00\n      add\n      sload\n        /* \"01_hello.sol\":1416:1434  c1.sodaBought >= 5 */\n      lt\n        /* \"01_hello.sol\":1413:1524  if(c1.sodaBought >= 5){... */\n      tag_67\n      jumpi\n        /* \"01_hello.sol\":1458:1462  true */\n      0x01\n        /* \"01_hello.sol\":1449:1451  c1 */\n      dup2\n        /* \"01_hello.sol\":1449:1455  c1.vip */\n      0x02\n      add\n      0x00\n        /* \"01_hello.sol\":1449:1462  c1.vip = true */\n      0x0100\n      exp\n      dup2\n      sload\n      dup2\n      0xff\n      mul\n      not\n      and\n      swap1\n      dup4\n      iszero\n      iszero\n      mul\n      or\n      swap1\n      sstore\n      pop\n        /* \"01_hello.sol\":1496:1511  block.timestamp */\n      timestamp\n        /* \"01_hello.sol\":1477:1479  c1 */\n      dup2\n        /* \"01_hello.sol\":1477:1493  c1.lastPurchased */\n      0x01\n      add\n        /* \"01_hello.sol\":1477:1511  c1.lastPurchased = block.timestamp */\n      dup2\n      swap1\n      sstore\n      pop\n        /* \"01_hello.sol\":1413:1524  if(c1.sodaBought >= 5){... */\n    tag_67:\n        /* \"01_hello.sol\":1618:1619  1 */\n      0x01\n        /* \"01_hello.sol\":1602:1615  sodaInventory */\n      dup1\n      sload\n        /* \"01_hello.sol\":1602:1619  sodaInventory - 1 */\n      tag_68\n      swap2\n      swap1\n      tag_69\n      jump\t// in\n    tag_68:\n        /* \"01_hello.sol\":1586:1599  sodaInventory */\n      0x01\n        /* \"01_hello.sol\":1586:1619  sodaInventory = sodaInventory - 1 */\n      dup2\n      swap1\n      sstore\n      pop\n        /* \"01_hello.sol\":1023:1626  {... */\n      pop\n        /* \"01_hello.sol\":989:1626  function buySoda() public payable {... */\n      jump\t// out\n        /* \"01_hello.sol\":260:280  address public owner */\n    tag_33:\n      0x00\n      0x00\n      swap1\n      sload\n      swap1\n      0x0100\n      exp\n      swap1\n      div\n      0xffffffffffffffffffffffffffffffffffffffff\n      and\n      dup2\n      jump\t// out\n        /* \"01_hello.sol\":1962:2066  function restock(uint _amount) public onlyOwner {... */\n    tag_40:\n        /* \"01_hello.sol\":832:837  owner */\n      0x00\n      0x00\n      swap1\n      sload\n      swap1\n      0x0100\n      exp\n      swap1\n      div\n      0xffffffffffffffffffffffffffffffffffffffff\n      and\n        /* \"01_hello.sol\":818:837  msg.sender == owner */\n      0xffffffffffffffffffffffffffffffffffffffff\n      and\n        /* \"01_hello.sol\":818:828  msg.sender */\n      caller\n        /* \"01_hello.sol\":818:837  msg.sender == owner */\n      0xffffffffffffffffffffffffffffffffffffffff\n      and\n      eq\n        /* \"01_hello.sol\":810:880  require(msg.sender == owner, \"Only the owner can call this function.\") */\n      tag_71\n      jumpi\n      mload(0x40)\n      0x08c379a000000000000000000000000000000000000000000000000000000000\n      dup2\n      mstore\n      0x04\n      add\n      tag_72\n      swap1\n      tag_45\n      jump\t// in\n    tag_72:\n      mload(0x40)\n      dup1\n      swap2\n      sub\n      swap1\n      revert\n    tag_71:\n        /* \"01_hello.sol\":2052:2059  _amount */\n      dup1\n        /* \"01_hello.sol\":2036:2049  sodaInventory */\n      sload(0x01)\n        /* \"01_hello.sol\":2036:2059  sodaInventory + _amount */\n      tag_74\n      swap2\n      swap1\n      tag_75\n      jump\t// in\n    tag_74:\n        /* \"01_hello.sol\":2020:2033  sodaInventory */\n      0x01\n        /* \"01_hello.sol\":2020:2059  sodaInventory = sodaInventory + _amount */\n      dup2\n      swap1\n      sstore\n      pop\n        /* \"01_hello.sol\":1962:2066  function restock(uint _amount) public onlyOwner {... */\n      pop\n      jump\t// out\n        /* \"#utility.yul\":88:205   */\n    tag_77:\n        /* \"#utility.yul\":197:198   */\n      0x00\n        /* \"#utility.yul\":194:195   */\n      0x00\n        /* \"#utility.yul\":187:199   */\n      revert\n        /* \"#utility.yul\":334:460   */\n    tag_79:\n        /* \"#utility.yul\":371:378   */\n      0x00\n        /* \"#utility.yul\":411:453   */\n      0xffffffffffffffffffffffffffffffffffffffff\n        /* \"#utility.yul\":404:409   */\n      dup3\n        /* \"#utility.yul\":400:454   */\n      and\n        /* \"#utility.yul\":389:454   */\n      swap1\n      pop\n        /* \"#utility.yul\":334:460   */\n      swap2\n      swap1\n      pop\n      jump\t// out\n        /* \"#utility.yul\":466:562   */\n    tag_80:\n        /* \"#utility.yul\":503:510   */\n      0x00\n        /* \"#utility.yul\":532:556   */\n      tag_111\n        /* \"#utility.yul\":550:555   */\n      dup3\n        /* \"#utility.yul\":532:556   */\n      tag_79\n      jump\t// in\n    tag_111:\n        /* \"#utility.yul\":521:556   */\n      swap1\n      pop\n        /* \"#utility.yul\":466:562   */\n      swap2\n      swap1\n      pop\n      jump\t// out\n        /* \"#utility.yul\":568:690   */\n    tag_81:\n        /* \"#utility.yul\":641:665   */\n      tag_113\n        /* \"#utility.yul\":659:664   */\n      dup2\n        /* \"#utility.yul\":641:665   */\n      tag_80\n      jump\t// in\n    tag_113:\n        /* \"#utility.yul\":634:639   */\n      dup2\n        /* \"#utility.yul\":631:666   */\n      eq\n        /* \"#utility.yul\":621:684   */\n      tag_114\n      jumpi\n        /* \"#utility.yul\":680:681   */\n      0x00\n        /* \"#utility.yul\":677:678   */\n      0x00\n        /* \"#utility.yul\":670:682   */\n      revert\n        /* \"#utility.yul\":621:684   */\n    tag_114:\n        /* \"#utility.yul\":568:690   */\n      pop\n      jump\t// out\n        /* \"#utility.yul\":696:835   */\n    tag_82:\n        /* \"#utility.yul\":742:747   */\n      0x00\n        /* \"#utility.yul\":780:786   */\n      dup2\n        /* \"#utility.yul\":767:787   */\n      calldataload\n        /* \"#utility.yul\":758:787   */\n      swap1\n      pop\n        /* \"#utility.yul\":796:829   */\n      tag_116\n        /* \"#utility.yul\":823:828   */\n      dup2\n        /* \"#utility.yul\":796:829   */\n      tag_81\n      jump\t// in\n    tag_116:\n        /* \"#utility.yul\":696:835   */\n      swap3\n      swap2\n      pop\n      pop\n      jump\t// out\n        /* \"#utility.yul\":841:1170   */\n    tag_13:\n        /* \"#utility.yul\":900:906   */\n      0x00\n        /* \"#utility.yul\":949:951   */\n      0x20\n        /* \"#utility.yul\":937:946   */\n      dup3\n        /* \"#utility.yul\":928:935   */\n      dup5\n        /* \"#utility.yul\":924:947   */\n      sub\n        /* \"#utility.yul\":920:952   */\n      slt\n        /* \"#utility.yul\":917:1036   */\n      iszero\n      tag_118\n      jumpi\n        /* \"#utility.yul\":955:1034   */\n      tag_119\n      tag_77\n      jump\t// in\n    tag_119:\n        /* \"#utility.yul\":917:1036   */\n    tag_118:\n        /* \"#utility.yul\":1075:1076   */\n      0x00\n        /* \"#utility.yul\":1100:1153   */\n      tag_120\n        /* \"#utility.yul\":1145:1152   */\n      dup5\n        /* \"#utility.yul\":1136:1142   */\n      dup3\n        /* \"#utility.yul\":1125:1134   */\n      dup6\n        /* \"#utility.yul\":1121:1143   */\n      add\n        /* \"#utility.yul\":1100:1153   */\n      tag_82\n      jump\t// in\n    tag_120:\n        /* \"#utility.yul\":1090:1153   */\n      swap2\n      pop\n        /* \"#utility.yul\":1046:1163   */\n      pop\n        /* \"#utility.yul\":841:1170   */\n      swap3\n      swap2\n      pop\n      pop\n      jump\t// out\n        /* \"#utility.yul\":1176:1253   */\n    tag_83:\n        /* \"#utility.yul\":1213:1220   */\n      0x00\n        /* \"#utility.yul\":1242:1247   */\n      dup2\n        /* \"#utility.yul\":1231:1247   */\n      swap1\n      pop\n        /* \"#utility.yul\":1176:1253   */\n      swap2\n      swap1\n      pop\n      jump\t// out\n        /* \"#utility.yul\":1259:1377   */\n    tag_84:\n        /* \"#utility.yul\":1346:1370   */\n      tag_123\n        /* \"#utility.yul\":1364:1369   */\n      dup2\n        /* \"#utility.yul\":1346:1370   */\n      tag_83\n      jump\t// in\n    tag_123:\n        /* \"#utility.yul\":1341:1344   */\n      dup3\n        /* \"#utility.yul\":1334:1371   */\n      mstore\n        /* \"#utility.yul\":1259:1377   */\n      pop\n      pop\n      jump\t// out\n        /* \"#utility.yul\":1383:1473   */\n    tag_85:\n        /* \"#utility.yul\":1417:1424   */\n      0x00\n        /* \"#utility.yul\":1460:1465   */\n      dup2\n        /* \"#utility.yul\":1453:1466   */\n      iszero\n        /* \"#utility.yul\":1446:1467   */\n      iszero\n        /* \"#utility.yul\":1435:1467   */\n      swap1\n      pop\n        /* \"#utility.yul\":1383:1473   */\n      swap2\n      swap1\n      pop\n      jump\t// out\n        /* \"#utility.yul\":1479:1588   */\n    tag_86:\n        /* \"#utility.yul\":1560:1581   */\n      tag_126\n        /* \"#utility.yul\":1575:1580   */\n      dup2\n        /* \"#utility.yul\":1560:1581   */\n      tag_85\n      jump\t// in\n    tag_126:\n        /* \"#utility.yul\":1555:1558   */\n      dup3\n        /* \"#utility.yul\":1548:1582   */\n      mstore\n        /* \"#utility.yul\":1479:1588   */\n      pop\n      pop\n      jump\t// out\n        /* \"#utility.yul\":1594:2024   */\n    tag_16:\n        /* \"#utility.yul\":1737:1741   */\n      0x00\n        /* \"#utility.yul\":1775:1777   */\n      0x60\n        /* \"#utility.yul\":1764:1773   */\n      dup3\n        /* \"#utility.yul\":1760:1778   */\n      add\n        /* \"#utility.yul\":1752:1778   */\n      swap1\n      pop\n        /* \"#utility.yul\":1788:1859   */\n      tag_128\n        /* \"#utility.yul\":1856:1857   */\n      0x00\n        /* \"#utility.yul\":1845:1854   */\n      dup4\n        /* \"#utility.yul\":1841:1858   */\n      add\n        /* \"#utility.yul\":1832:1838   */\n      dup7\n        /* \"#utility.yul\":1788:1859   */\n      tag_84\n      jump\t// in\n    tag_128:\n        /* \"#utility.yul\":1869:1941   */\n      tag_129\n        /* \"#utility.yul\":1937:1939   */\n      0x20\n        /* \"#utility.yul\":1926:1935   */\n      dup4\n        /* \"#utility.yul\":1922:1940   */\n      add\n        /* \"#utility.yul\":1913:1919   */\n      dup6\n        /* \"#utility.yul\":1869:1941   */\n      tag_84\n      jump\t// in\n    tag_129:\n        /* \"#utility.yul\":1951:2017   */\n      tag_130\n        /* \"#utility.yul\":2013:2015   */\n      0x40\n        /* \"#utility.yul\":2002:2011   */\n      dup4\n        /* \"#utility.yul\":1998:2016   */\n      add\n        /* \"#utility.yul\":1989:1995   */\n      dup5\n        /* \"#utility.yul\":1951:2017   */\n      tag_86\n      jump\t// in\n    tag_130:\n        /* \"#utility.yul\":1594:2024   */\n      swap5\n      swap4\n      pop\n      pop\n      pop\n      pop\n      jump\t// out\n        /* \"#utility.yul\":2030:2252   */\n    tag_21:\n        /* \"#utility.yul\":2123:2127   */\n      0x00\n        /* \"#utility.yul\":2161:2163   */\n      0x20\n        /* \"#utility.yul\":2150:2159   */\n      dup3\n        /* \"#utility.yul\":2146:2164   */\n      add\n        /* \"#utility.yul\":2138:2164   */\n      swap1\n      pop\n        /* \"#utility.yul\":2174:2245   */\n      tag_132\n        /* \"#utility.yul\":2242:2243   */\n      0x00\n        /* \"#utility.yul\":2231:2240   */\n      dup4\n        /* \"#utility.yul\":2227:2244   */\n      add\n        /* \"#utility.yul\":2218:2224   */\n      dup5\n        /* \"#utility.yul\":2174:2245   */\n      tag_84\n      jump\t// in\n    tag_132:\n        /* \"#utility.yul\":2030:2252   */\n      swap3\n      swap2\n      pop\n      pop\n      jump\t// out\n        /* \"#utility.yul\":2258:2376   */\n    tag_87:\n        /* \"#utility.yul\":2345:2369   */\n      tag_134\n        /* \"#utility.yul\":2363:2368   */\n      dup2\n        /* \"#utility.yul\":2345:2369   */\n      tag_80\n      jump\t// in\n    tag_134:\n        /* \"#utility.yul\":2340:2343   */\n      dup3\n        /* \"#utility.yul\":2333:2370   */\n      mstore\n        /* \"#utility.yul\":2258:2376   */\n      pop\n      pop\n      jump\t// out\n        /* \"#utility.yul\":2382:2604   */\n    tag_35:\n        /* \"#utility.yul\":2475:2479   */\n      0x00\n        /* \"#utility.yul\":2513:2515   */\n      0x20\n        /* \"#utility.yul\":2502:2511   */\n      dup3\n        /* \"#utility.yul\":2498:2516   */\n      add\n        /* \"#utility.yul\":2490:2516   */\n      swap1\n      pop\n        /* \"#utility.yul\":2526:2597   */\n      tag_136\n        /* \"#utility.yul\":2594:2595   */\n      0x00\n        /* \"#utility.yul\":2583:2592   */\n      dup4\n        /* \"#utility.yul\":2579:2596   */\n      add\n        /* \"#utility.yul\":2570:2576   */\n      dup5\n        /* \"#utility.yul\":2526:2597   */\n      tag_87\n      jump\t// in\n    tag_136:\n        /* \"#utility.yul\":2382:2604   */\n      swap3\n      swap2\n      pop\n      pop\n      jump\t// out\n        /* \"#utility.yul\":2610:2732   */\n    tag_88:\n        /* \"#utility.yul\":2683:2707   */\n      tag_138\n        /* \"#utility.yul\":2701:2706   */\n      dup2\n        /* \"#utility.yul\":2683:2707   */\n      tag_83\n      jump\t// in\n    tag_138:\n        /* \"#utility.yul\":2676:2681   */\n      dup2\n        /* \"#utility.yul\":2673:2708   */\n      eq\n        /* \"#utility.yul\":2663:2726   */\n      tag_139\n      jumpi\n        /* \"#utility.yul\":2722:2723   */\n      0x00\n        /* \"#utility.yul\":2719:2720   */\n      0x00\n        /* \"#utility.yul\":2712:2724   */\n      revert\n        /* \"#utility.yul\":2663:2726   */\n    tag_139:\n        /* \"#utility.yul\":2610:2732   */\n      pop\n      jump\t// out\n        /* \"#utility.yul\":2738:2877   */\n    tag_89:\n        /* \"#utility.yul\":2784:2789   */\n      0x00\n        /* \"#utility.yul\":2822:2828   */\n      dup2\n        /* \"#utility.yul\":2809:2829   */\n      calldataload\n        /* \"#utility.yul\":2800:2829   */\n      swap1\n      pop\n        /* \"#utility.yul\":2838:2871   */\n      tag_141\n        /* \"#utility.yul\":2865:2870   */\n      dup2\n        /* \"#utility.yul\":2838:2871   */\n      tag_88\n      jump\t// in\n    tag_141:\n        /* \"#utility.yul\":2738:2877   */\n      swap3\n      swap2\n      pop\n      pop\n      jump\t// out\n        /* \"#utility.yul\":2883:3212   */\n    tag_39:\n        /* \"#utility.yul\":2942:2948   */\n      0x00\n        /* \"#utility.yul\":2991:2993   */\n      0x20\n        /* \"#utility.yul\":2979:2988   */\n      dup3\n        /* \"#utility.yul\":2970:2977   */\n      dup5\n        /* \"#utility.yul\":2966:2989   */\n      sub\n        /* \"#utility.yul\":2962:2994   */\n      slt\n        /* \"#utility.yul\":2959:3078   */\n      iszero\n      tag_143\n      jumpi\n        /* \"#utility.yul\":2997:3076   */\n      tag_144\n      tag_77\n      jump\t// in\n    tag_144:\n        /* \"#utility.yul\":2959:3078   */\n    tag_143:\n        /* \"#utility.yul\":3117:3118   */\n      0x00\n        /* \"#utility.yul\":3142:3195   */\n      tag_145\n        /* \"#utility.yul\":3187:3194   */\n      dup5\n        /* \"#utility.yul\":3178:3184   */\n      dup3\n        /* \"#utility.yul\":3167:3176   */\n      dup6\n        /* \"#utility.yul\":3163:3185   */\n      add\n        /* \"#utility.yul\":3142:3195   */\n      tag_89\n      jump\t// in\n    tag_145:\n        /* \"#utility.yul\":3132:3195   */\n      swap2\n      pop\n        /* \"#utility.yul\":3088:3205   */\n      pop\n        /* \"#utility.yul\":2883:3212   */\n      swap3\n      swap2\n      pop\n      pop\n      jump\t// out\n        /* \"#utility.yul\":3218:3387   */\n    tag_90:\n        /* \"#utility.yul\":3302:3313   */\n      0x00\n        /* \"#utility.yul\":3336:3342   */\n      dup3\n        /* \"#utility.yul\":3331:3334   */\n      dup3\n        /* \"#utility.yul\":3324:3343   */\n      mstore\n        /* \"#utility.yul\":3376:3380   */\n      0x20\n        /* \"#utility.yul\":3371:3374   */\n      dup3\n        /* \"#utility.yul\":3367:3381   */\n      add\n        /* \"#utility.yul\":3352:3381   */\n      swap1\n      pop\n        /* \"#utility.yul\":3218:3387   */\n      swap3\n      swap2\n      pop\n      pop\n      jump\t// out\n        /* \"#utility.yul\":3393:3618   */\n    tag_91:\n        /* \"#utility.yul\":3533:3567   */\n      0x4f6e6c7920746865206f776e65722063616e2063616c6c20746869732066756e\n        /* \"#utility.yul\":3529:3530   */\n      0x00\n        /* \"#utility.yul\":3521:3527   */\n      dup3\n        /* \"#utility.yul\":3517:3531   */\n      add\n        /* \"#utility.yul\":3510:3568   */\n      mstore\n        /* \"#utility.yul\":3602:3610   */\n      0x6374696f6e2e0000000000000000000000000000000000000000000000000000\n        /* \"#utility.yul\":3597:3599   */\n      0x20\n        /* \"#utility.yul\":3589:3595   */\n      dup3\n        /* \"#utility.yul\":3585:3600   */\n      add\n        /* \"#utility.yul\":3578:3611   */\n      mstore\n        /* \"#utility.yul\":3393:3618   */\n      pop\n      jump\t// out\n        /* \"#utility.yul\":3624:3990   */\n    tag_92:\n        /* \"#utility.yul\":3766:3769   */\n      0x00\n        /* \"#utility.yul\":3787:3854   */\n      tag_149\n        /* \"#utility.yul\":3851:3853   */\n      0x26\n        /* \"#utility.yul\":3846:3849   */\n      dup4\n        /* \"#utility.yul\":3787:3854   */\n      tag_90\n      jump\t// in\n    tag_149:\n        /* \"#utility.yul\":3780:3854   */\n      swap2\n      pop\n        /* \"#utility.yul\":3863:3956   */\n      tag_150\n        /* \"#utility.yul\":3952:3955   */\n      dup3\n        /* \"#utility.yul\":3863:3956   */\n      tag_91\n      jump\t// in\n    tag_150:\n        /* \"#utility.yul\":3981:3983   */\n      0x40\n        /* \"#utility.yul\":3976:3979   */\n      dup3\n        /* \"#utility.yul\":3972:3984   */\n      add\n        /* \"#utility.yul\":3965:3984   */\n      swap1\n      pop\n        /* \"#utility.yul\":3624:3990   */\n      swap2\n      swap1\n      pop\n      jump\t// out\n        /* \"#utility.yul\":3996:4415   */\n    tag_45:\n        /* \"#utility.yul\":4162:4166   */\n      0x00\n        /* \"#utility.yul\":4200:4202   */\n      0x20\n        /* \"#utility.yul\":4189:4198   */\n      dup3\n        /* \"#utility.yul\":4185:4203   */\n      add\n        /* \"#utility.yul\":4177:4203   */\n      swap1\n      pop\n        /* \"#utility.yul\":4249:4258   */\n      dup2\n        /* \"#utility.yul\":4243:4247   */\n      dup2\n        /* \"#utility.yul\":4239:4259   */\n      sub\n        /* \"#utility.yul\":4235:4236   */\n      0x00\n        /* \"#utility.yul\":4224:4233   */\n      dup4\n        /* \"#utility.yul\":4220:4237   */\n      add\n        /* \"#utility.yul\":4213:4260   */\n      mstore\n        /* \"#utility.yul\":4277:4408   */\n      tag_152\n        /* \"#utility.yul\":4403:4407   */\n      dup2\n        /* \"#utility.yul\":4277:4408   */\n      tag_92\n      jump\t// in\n    tag_152:\n        /* \"#utility.yul\":4269:4408   */\n      swap1\n      pop\n        /* \"#utility.yul\":3996:4415   */\n      swap2\n      swap1\n      pop\n      jump\t// out\n        /* \"#utility.yul\":4421:4594   */\n    tag_93:\n        /* \"#utility.yul\":4561:4586   */\n      0x4e6f2070726f6669747320746f2077697468647261772e000000000000000000\n        /* \"#utility.yul\":4557:4558   */\n      0x00\n        /* \"#utility.yul\":4549:4555   */\n      dup3\n        /* \"#utility.yul\":4545:4559   */\n      add\n        /* \"#utility.yul\":4538:4587   */\n      mstore\n        /* \"#utility.yul\":4421:4594   */\n      pop\n      jump\t// out\n        /* \"#utility.yul\":4600:4966   */\n    tag_94:\n        /* \"#utility.yul\":4742:4745   */\n      0x00\n        /* \"#utility.yul\":4763:4830   */\n      tag_155\n        /* \"#utility.yul\":4827:4829   */\n      0x17\n        /* \"#utility.yul\":4822:4825   */\n      dup4\n        /* \"#utility.yul\":4763:4830   */\n      tag_90\n      jump\t// in\n    tag_155:\n        /* \"#utility.yul\":4756:4830   */\n      swap2\n      pop\n        /* \"#utility.yul\":4839:4932   */\n      tag_156\n        /* \"#utility.yul\":4928:4931   */\n      dup3\n        /* \"#utility.yul\":4839:4932   */\n      tag_93\n      jump\t// in\n    tag_156:\n        /* \"#utility.yul\":4957:4959   */\n      0x20\n        /* \"#utility.yul\":4952:4955   */\n      dup3\n        /* \"#utility.yul\":4948:4960   */\n      add\n        /* \"#utility.yul\":4941:4960   */\n      swap1\n      pop\n        /* \"#utility.yul\":4600:4966   */\n      swap2\n      swap1\n      pop\n      jump\t// out\n        /* \"#utility.yul\":4972:5391   */\n    tag_49:\n        /* \"#utility.yul\":5138:5142   */\n      0x00\n        /* \"#utility.yul\":5176:5178   */\n      0x20\n        /* \"#utility.yul\":5165:5174   */\n      dup3\n        /* \"#utility.yul\":5161:5179   */\n      add\n        /* \"#utility.yul\":5153:5179   */\n      swap1\n      pop\n        /* \"#utility.yul\":5225:5234   */\n      dup2\n        /* \"#utility.yul\":5219:5223   */\n      dup2\n        /* \"#utility.yul\":5215:5235   */\n      sub\n        /* \"#utility.yul\":5211:5212   */\n      0x00\n        /* \"#utility.yul\":5200:5209   */\n      dup4\n        /* \"#utility.yul\":5196:5213   */\n      add\n        /* \"#utility.yul\":5189:5236   */\n      mstore\n        /* \"#utility.yul\":5253:5384   */\n      tag_158\n        /* \"#utility.yul\":5379:5383   */\n      dup2\n        /* \"#utility.yul\":5253:5384   */\n      tag_94\n      jump\t// in\n    tag_158:\n        /* \"#utility.yul\":5245:5384   */\n      swap1\n      pop\n        /* \"#utility.yul\":4972:5391   */\n      swap2\n      swap1\n      pop\n      jump\t// out\n        /* \"#utility.yul\":5397:5544   */\n    tag_95:\n        /* \"#utility.yul\":5498:5509   */\n      0x00\n        /* \"#utility.yul\":5535:5538   */\n      dup2\n        /* \"#utility.yul\":5520:5538   */\n      swap1\n      pop\n        /* \"#utility.yul\":5397:5544   */\n      swap3\n      swap2\n      pop\n      pop\n      jump\t// out\n        /* \"#utility.yul\":5550:5664   */\n    tag_96:\n      pop\n      jump\t// out\n        /* \"#utility.yul\":5670:6068   */\n    tag_97:\n        /* \"#utility.yul\":5829:5832   */\n      0x00\n        /* \"#utility.yul\":5850:5933   */\n      tag_162\n        /* \"#utility.yul\":5931:5932   */\n      0x00\n        /* \"#utility.yul\":5926:5929   */\n      dup4\n        /* \"#utility.yul\":5850:5933   */\n      tag_95\n      jump\t// in\n    tag_162:\n        /* \"#utility.yul\":5843:5933   */\n      swap2\n      pop\n        /* \"#utility.yul\":5942:6035   */\n      tag_163\n        /* \"#utility.yul\":6031:6034   */\n      dup3\n        /* \"#utility.yul\":5942:6035   */\n      tag_96\n      jump\t// in\n    tag_163:\n        /* \"#utility.yul\":6060:6061   */\n      0x00\n        /* \"#utility.yul\":6055:6058   */\n      dup3\n        /* \"#utility.yul\":6051:6062   */\n      add\n        /* \"#utility.yul\":6044:6062   */\n      swap1\n      pop\n        /* \"#utility.yul\":5670:6068   */\n      swap2\n      swap1\n      pop\n      jump\t// out\n        /* \"#utility.yul\":6074:6453   */\n    tag_51:\n        /* \"#utility.yul\":6258:6261   */\n      0x00\n        /* \"#utility.yul\":6280:6427   */\n      tag_165\n        /* \"#utility.yul\":6423:6426   */\n      dup3\n        /* \"#utility.yul\":6280:6427   */\n      tag_97\n      jump\t// in\n    tag_165:\n        /* \"#utility.yul\":6273:6427   */\n      swap2\n      pop\n        /* \"#utility.yul\":6444:6447   */\n      dup2\n        /* \"#utility.yul\":6437:6447   */\n      swap1\n      pop\n        /* \"#utility.yul\":6074:6453   */\n      swap2\n      swap1\n      pop\n      jump\t// out\n        /* \"#utility.yul\":6459:6628   */\n    tag_98:\n        /* \"#utility.yul\":6599:6620   */\n      0x455448207472616e73666572206661696c656400000000000000000000000000\n        /* \"#utility.yul\":6595:6596   */\n      0x00\n        /* \"#utility.yul\":6587:6593   */\n      dup3\n        /* \"#utility.yul\":6583:6597   */\n      add\n        /* \"#utility.yul\":6576:6621   */\n      mstore\n        /* \"#utility.yul\":6459:6628   */\n      pop\n      jump\t// out\n        /* \"#utility.yul\":6634:7000   */\n    tag_99:\n        /* \"#utility.yul\":6776:6779   */\n      0x00\n        /* \"#utility.yul\":6797:6864   */\n      tag_168\n        /* \"#utility.yul\":6861:6863   */\n      0x13\n        /* \"#utility.yul\":6856:6859   */\n      dup4\n        /* \"#utility.yul\":6797:6864   */\n      tag_90\n      jump\t// in\n    tag_168:\n        /* \"#utility.yul\":6790:6864   */\n      swap2\n      pop\n        /* \"#utility.yul\":6873:6966   */\n      tag_169\n        /* \"#utility.yul\":6962:6965   */\n      dup3\n        /* \"#utility.yul\":6873:6966   */\n      tag_98\n      jump\t// in\n    tag_169:\n        /* \"#utility.yul\":6991:6993   */\n      0x20\n        /* \"#utility.yul\":6986:6989   */\n      dup3\n        /* \"#utility.yul\":6982:6994   */\n      add\n        /* \"#utility.yul\":6975:6994   */\n      swap1\n      pop\n        /* \"#utility.yul\":6634:7000   */\n      swap2\n      swap1\n      pop\n      jump\t// out\n        /* \"#utility.yul\":7006:7425   */\n    tag_57:\n        /* \"#utility.yul\":7172:7176   */\n      0x00\n        /* \"#utility.yul\":7210:7212   */\n      0x20\n        /* \"#utility.yul\":7199:7208   */\n      dup3\n        /* \"#utility.yul\":7195:7213   */\n      add\n        /* \"#utility.yul\":7187:7213   */\n      swap1\n      pop\n        /* \"#utility.yul\":7259:7268   */\n      dup2\n        /* \"#utility.yul\":7253:7257   */\n      dup2\n        /* \"#utility.yul\":7249:7269   */\n      sub\n        /* \"#utility.yul\":7245:7246   */\n      0x00\n        /* \"#utility.yul\":7234:7243   */\n      dup4\n        /* \"#utility.yul\":7230:7247   */\n      add\n        /* \"#utility.yul\":7223:7270   */\n      mstore\n        /* \"#utility.yul\":7287:7418   */\n      tag_171\n        /* \"#utility.yul\":7413:7417   */\n      dup2\n        /* \"#utility.yul\":7287:7418   */\n      tag_99\n      jump\t// in\n    tag_171:\n        /* \"#utility.yul\":7279:7418   */\n      swap1\n      pop\n        /* \"#utility.yul\":7006:7425   */\n      swap2\n      swap1\n      pop\n      jump\t// out\n        /* \"#utility.yul\":7431:7601   */\n    tag_100:\n        /* \"#utility.yul\":7571:7593   */\n      0x536f7272792c206f7574206f662073746f636b21000000000000000000000000\n        /* \"#utility.yul\":7567:7568   */\n      0x00\n        /* \"#utility.yul\":7559:7565   */\n      dup3\n        /* \"#utility.yul\":7555:7569   */\n      add\n        /* \"#utility.yul\":7548:7594   */\n      mstore\n        /* \"#utility.yul\":7431:7601   */\n      pop\n      jump\t// out\n        /* \"#utility.yul\":7607:7973   */\n    tag_101:\n        /* \"#utility.yul\":7749:7752   */\n      0x00\n        /* \"#utility.yul\":7770:7837   */\n      tag_174\n        /* \"#utility.yul\":7834:7836   */\n      0x14\n        /* \"#utility.yul\":7829:7832   */\n      dup4\n        /* \"#utility.yul\":7770:7837   */\n      tag_90\n      jump\t// in\n    tag_174:\n        /* \"#utility.yul\":7763:7837   */\n      swap2\n      pop\n        /* \"#utility.yul\":7846:7939   */\n      tag_175\n        /* \"#utility.yul\":7935:7938   */\n      dup3\n        /* \"#utility.yul\":7846:7939   */\n      tag_100\n      jump\t// in\n    tag_175:\n        /* \"#utility.yul\":7964:7966   */\n      0x20\n        /* \"#utility.yul\":7959:7962   */\n      dup3\n        /* \"#utility.yul\":7955:7967   */\n      add\n        /* \"#utility.yul\":7948:7967   */\n      swap1\n      pop\n        /* \"#utility.yul\":7607:7973   */\n      swap2\n      swap1\n      pop\n      jump\t// out\n        /* \"#utility.yul\":7979:8398   */\n    tag_61:\n        /* \"#utility.yul\":8145:8149   */\n      0x00\n        /* \"#utility.yul\":8183:8185   */\n      0x20\n        /* \"#utility.yul\":8172:8181   */\n      dup3\n        /* \"#utility.yul\":8168:8186   */\n      add\n        /* \"#utility.yul\":8160:8186   */\n      swap1\n      pop\n        /* \"#utility.yul\":8232:8241   */\n      dup2\n        /* \"#utility.yul\":8226:8230   */\n      dup2\n        /* \"#utility.yul\":8222:8242   */\n      sub\n        /* \"#utility.yul\":8218:8219   */\n      0x00\n        /* \"#utility.yul\":8207:8216   */\n      dup4\n        /* \"#utility.yul\":8203:8220   */\n      add\n        /* \"#utility.yul\":8196:8243   */\n      mstore\n        /* \"#utility.yul\":8260:8391   */\n      tag_177\n        /* \"#utility.yul\":8386:8390   */\n      dup2\n        /* \"#utility.yul\":8260:8391   */\n      tag_101\n      jump\t// in\n    tag_177:\n        /* \"#utility.yul\":8252:8391   */\n      swap1\n      pop\n        /* \"#utility.yul\":7979:8398   */\n      swap2\n      swap1\n      pop\n      jump\t// out\n        /* \"#utility.yul\":8404:8630   */\n    tag_102:\n        /* \"#utility.yul\":8544:8578   */\n      0x596f75206d757374207061792065786163746c7920302e303120455448207065\n        /* \"#utility.yul\":8540:8541   */\n      0x00\n        /* \"#utility.yul\":8532:8538   */\n      dup3\n        /* \"#utility.yul\":8528:8542   */\n      add\n        /* \"#utility.yul\":8521:8579   */\n      mstore\n        /* \"#utility.yul\":8613:8622   */\n      0x7220736f64612e00000000000000000000000000000000000000000000000000\n        /* \"#utility.yul\":8608:8610   */\n      0x20\n        /* \"#utility.yul\":8600:8606   */\n      dup3\n        /* \"#utility.yul\":8596:8611   */\n      add\n        /* \"#utility.yul\":8589:8623   */\n      mstore\n        /* \"#utility.yul\":8404:8630   */\n      pop\n      jump\t// out\n        /* \"#utility.yul\":8636:9002   */\n    tag_103:\n        /* \"#utility.yul\":8778:8781   */\n      0x00\n        /* \"#utility.yul\":8799:8866   */\n      tag_180\n        /* \"#utility.yul\":8863:8865   */\n      0x27\n        /* \"#utility.yul\":8858:8861   */\n      dup4\n        /* \"#utility.yul\":8799:8866   */\n      tag_90\n      jump\t// in\n    tag_180:\n        /* \"#utility.yul\":8792:8866   */\n      swap2\n      pop\n        /* \"#utility.yul\":8875:8968   */\n      tag_181\n        /* \"#utility.yul\":8964:8967   */\n      dup3\n        /* \"#utility.yul\":8875:8968   */\n      tag_102\n      jump\t// in\n    tag_181:\n        /* \"#utility.yul\":8993:8995   */\n      0x40\n        /* \"#utility.yul\":8988:8991   */\n      dup3\n        /* \"#utility.yul\":8984:8996   */\n      add\n        /* \"#utility.yul\":8977:8996   */\n      swap1\n      pop\n        /* \"#utility.yul\":8636:9002   */\n      swap2\n      swap1\n      pop\n      jump\t// out\n        /* \"#utility.yul\":9008:9427   */\n    tag_64:\n        /* \"#utility.yul\":9174:9178   */\n      0x00\n        /* \"#utility.yul\":9212:9214   */\n      0x20\n        /* \"#utility.yul\":9201:9210   */\n      dup3\n        /* \"#utility.yul\":9197:9215   */\n      add\n        /* \"#utility.yul\":9189:9215   */\n      swap1\n      pop\n        /* \"#utility.yul\":9261:9270   */\n      dup2\n        /* \"#utility.yul\":9255:9259   */\n      dup2\n        /* \"#utility.yul\":9251:9271   */\n      sub\n        /* \"#utility.yul\":9247:9248   */\n      0x00\n        /* \"#utility.yul\":9236:9245   */\n      dup4\n        /* \"#utility.yul\":9232:9249   */\n      add\n        /* \"#utility.yul\":9225:9272   */\n      mstore\n        /* \"#utility.yul\":9289:9420   */\n      tag_183\n        /* \"#utility.yul\":9415:9419   */\n      dup2\n        /* \"#utility.yul\":9289:9420   */\n      tag_103\n      jump\t// in\n    tag_183:\n        /* \"#utility.yul\":9281:9420   */\n      swap1\n      pop\n        /* \"#utility.yul\":9008:9427   */\n      swap2\n      swap1\n      pop\n      jump\t// out\n        /* \"#utility.yul\":9433:9613   */\n    tag_104:\n        /* \"#utility.yul\":9481:9558   */\n      0x4e487b7100000000000000000000000000000000000000000000000000000000\n        /* \"#utility.yul\":9478:9479   */\n      0x00\n        /* \"#utility.yul\":9471:9559   */\n      mstore\n        /* \"#utility.yul\":9578:9582   */\n      0x11\n        /* \"#utility.yul\":9575:9576   */\n      0x04\n        /* \"#utility.yul\":9568:9583   */\n      mstore\n        /* \"#utility.yul\":9602:9606   */\n      0x24\n        /* \"#utility.yul\":9599:9600   */\n      0x00\n        /* \"#utility.yul\":9592:9607   */\n      revert\n        /* \"#utility.yul\":9619:9852   */\n    tag_66:\n        /* \"#utility.yul\":9658:9661   */\n      0x00\n        /* \"#utility.yul\":9681:9705   */\n      tag_186\n        /* \"#utility.yul\":9699:9704   */\n      dup3\n        /* \"#utility.yul\":9681:9705   */\n      tag_83\n      jump\t// in\n    tag_186:\n        /* \"#utility.yul\":9672:9705   */\n      swap2\n      pop\n        /* \"#utility.yul\":9727:9793   */\n      0xffffffffffffffffffffffffffffffffffffffffffffffffffffffffffffffff\n        /* \"#utility.yul\":9720:9725   */\n      dup3\n        /* \"#utility.yul\":9717:9794   */\n      sub\n        /* \"#utility.yul\":9714:9817   */\n      tag_187\n      jumpi\n        /* \"#utility.yul\":9797:9815   */\n      tag_188\n      tag_104\n      jump\t// in\n    tag_188:\n        /* \"#utility.yul\":9714:9817   */\n    tag_187:\n        /* \"#utility.yul\":9844:9845   */\n      0x01\n        /* \"#utility.yul\":9837:9842   */\n      dup3\n        /* \"#utility.yul\":9833:9846   */\n      add\n        /* \"#utility.yul\":9826:9846   */\n      swap1\n      pop\n        /* \"#utility.yul\":9619:9852   */\n      swap2\n      swap1\n      pop\n      jump\t// out\n        /* \"#utility.yul\":9858:10052   */\n    tag_69:\n        /* \"#utility.yul\":9898:9902   */\n      0x00\n        /* \"#utility.yul\":9918:9938   */\n      tag_190\n        /* \"#utility.yul\":9936:9937   */\n      dup3\n        /* \"#utility.yul\":9918:9938   */\n      tag_83\n      jump\t// in\n    tag_190:\n        /* \"#utility.yul\":9913:9938   */\n      swap2\n      pop\n        /* \"#utility.yul\":9952:9972   */\n      tag_191\n        /* \"#utility.yul\":9970:9971   */\n      dup4\n        /* \"#utility.yul\":9952:9972   */\n      tag_83\n      jump\t// in\n    tag_191:\n        /* \"#utility.yul\":9947:9972   */\n      swap3\n      pop\n        /* \"#utility.yul\":9996:9997   */\n      dup3\n        /* \"#utility.yul\":9993:9994   */\n      dup3\n        /* \"#utility.yul\":9989:9998   */\n      sub\n        /* \"#utility.yul\":9981:9998   */\n      swap1\n      pop\n        /* \"#utility.yul\":10020:10021   */\n      dup2\n        /* \"#utility.yul\":10014:10018   */\n      dup2\n        /* \"#utility.yul\":10011:10022   */\n      gt\n        /* \"#utility.yul\":10008:10045   */\n      iszero\n      tag_192\n      jumpi\n        /* \"#utility.yul\":10025:10043   */\n      tag_193\n      tag_104\n      jump\t// in\n    tag_193:\n        /* \"#utility.yul\":10008:10045   */\n    tag_192:\n        /* \"#utility.yul\":9858:10052   */\n      swap3\n      swap2\n      pop\n      pop\n      jump\t// out\n        /* \"#utility.yul\":10058:10249   */\n    tag_75:\n        /* \"#utility.yul\":10098:10101   */\n      0x00\n        /* \"#utility.yul\":10117:10137   */\n      tag_195\n        /* \"#utility.yul\":10135:10136   */\n      dup3\n        /* \"#utility.yul\":10117:10137   */\n      tag_83\n      jump\t// in\n    tag_195:\n        /* \"#utility.yul\":10112:10137   */\n      swap2\n      pop\n        /* \"#utility.yul\":10151:10171   */\n      tag_196\n        /* \"#utility.yul\":10169:10170   */\n      dup4\n        /* \"#utility.yul\":10151:10171   */\n      tag_83\n      jump\t// in\n    tag_196:\n        /* \"#utility.yul\":10146:10171   */\n      swap3\n      pop\n        /* \"#utility.yul\":10194:10195   */\n      dup3\n        /* \"#utility.yul\":10191:10192   */\n      dup3\n        /* \"#utility.yul\":10187:10196   */\n      add\n        /* \"#utility.yul\":10180:10196   */\n      swap1\n      pop\n        /* \"#utility.yul\":10215:10218   */\n      dup1\n        /* \"#utility.yul\":10212:10213   */\n      dup3\n        /* \"#utility.yul\":10209:10219   */\n      gt\n        /* \"#utility.yul\":10206:10242   */\n      iszero\n      tag_197\n      jumpi\n        /* \"#utility.yul\":10222:10240   */\n      tag_198\n      tag_104\n      jump\t// in\n    tag_198:\n        /* \"#utility.yul\":10206:10242   */\n    tag_197:\n        /* \"#utility.yul\":10058:10249   */\n      swap3\n      swap2\n      pop\n      pop\n      jump\t// out\n\n    auxdata: 0xa2646970667358221220dce0e6c3cb65a1aadffe11dff3a7bf4b2d1c6ba2c647a0ec321ea855bdde810c64736f6c634300081f0033\n}\n",
				"bytecode": {
					"linkReferences": {},
					"object": "6080604052348015600e575f5ffd5b50335f5f6101000a81548173ffffffffffffffffffffffffffffffffffffffff021916908373ffffffffffffffffffffffffffffffffffffffff1602179055506064600181905550610a88806100635f395ff3fe60806040526004361061006f575f3560e01c806339913e091161004d57806339913e09146101055780633db8cbcc1461011b5780638da5cb5b14610125578063c21a702a1461014f5761006f565b80630ea6991a1461007357806312065fe0146100b15780632470b2a0146100db575b5f5ffd5b34801561007e575f5ffd5b50610099600480360381019061009491906105ab565b610177565b6040516100a893929190610608565b60405180910390f35b3480156100bc575f5ffd5b506100c56101a9565b6040516100d2919061063d565b60405180910390f35b3480156100e6575f5ffd5b506100ef6101b0565b6040516100fc919061063d565b60405180910390f35b348015610110575f5ffd5b506101196101b6565b005b610123610356565b005b348015610130575f5ffd5b50610139610484565b6040516101469190610665565b60405180910390f35b34801561015a575f5ffd5b50610175600480360381019061017091906106a8565b6104a8565b005b6002602052805f5260405f205f91509050805f015490806001015490806002015f9054906101000a900460ff16905083565b5f47905090565b60015481565b5f5f9054906101000a900473ffffffffffffffffffffffffffffffffffffffff1673ffffffffffffffffffffffffffffffffffffffff163373ffffffffffffffffffffffffffffffffffffffff1614610244576040517f08c379a000000000000000000000000000000000000000000000000000000000815260040161023b90610753565b60405180910390fd5b5f4790505f811161028a576040517f08c379a0000000000000000000000000000000000000000000000000000000008152600401610281906107bb565b60405180910390fd5b5f5f5f9054906101000a900473ffffffffffffffffffffffffffffffffffffffff1673ffffffffffffffffffffffffffffffffffffffff16826040516102cf90610806565b5f6040518083038185875af1925050503d805f8114610309576040519150601f19603f3d011682016040523d82523d5f602084013e61030e565b606091505b5050905080610352576040517f08c379a000000000000000000000000000000000000000000000000000000000815260040161034990610864565b60405180910390fd5b5050565b5f6001541161039a576040517f08c379a0000000000000000000000000000000000000000000000000000000008152600401610391906108cc565b60405180910390fd5b670de0b6b3a764000034146103e4576040517f08c379a00000000000000000000000000000000000000000000000000000000081526004016103db9061095a565b60405180910390fd5b5f60025f3373ffffffffffffffffffffffffffffffffffffffff1673ffffffffffffffffffffffffffffffffffffffff1681526020019081526020015f209050805f015f815480929190610437906109a5565b91905055506005815f01541061046d576001816002015f6101000a81548160ff0219169083151502179055504281600101819055505b6001805461047b91906109ec565b60018190555050565b5f5f9054906101000a900473ffffffffffffffffffffffffffffffffffffffff1681565b5f5f9054906101000a900473ffffffffffffffffffffffffffffffffffffffff1673ffffffffffffffffffffffffffffffffffffffff163373ffffffffffffffffffffffffffffffffffffffff1614610536576040517f08c379a000000000000000000000000000000000000000000000000000000000815260040161052d90610753565b60405180910390fd5b806001546105449190610a1f565b60018190555050565b5f5ffd5b5f73ffffffffffffffffffffffffffffffffffffffff82169050919050565b5f61057a82610551565b9050919050565b61058a81610570565b8114610594575f5ffd5b50565b5f813590506105a581610581565b92915050565b5f602082840312156105c0576105bf61054d565b5b5f6105cd84828501610597565b91505092915050565b5f819050919050565b6105e8816105d6565b82525050565b5f8115159050919050565b610602816105ee565b82525050565b5f60608201905061061b5f8301866105df565b61062860208301856105df565b61063560408301846105f9565b949350505050565b5f6020820190506106505f8301846105df565b92915050565b61065f81610570565b82525050565b5f6020820190506106785f830184610656565b92915050565b610687816105d6565b8114610691575f5ffd5b50565b5f813590506106a28161067e565b92915050565b5f602082840312156106bd576106bc61054d565b5b5f6106ca84828501610694565b91505092915050565b5f82825260208201905092915050565b7f4f6e6c7920746865206f776e65722063616e2063616c6c20746869732066756e5f8201527f6374696f6e2e0000000000000000000000000000000000000000000000000000602082015250565b5f61073d6026836106d3565b9150610748826106e3565b604082019050919050565b5f6020820190508181035f83015261076a81610731565b9050919050565b7f4e6f2070726f6669747320746f2077697468647261772e0000000000000000005f82015250565b5f6107a56017836106d3565b91506107b082610771565b602082019050919050565b5f6020820190508181035f8301526107d281610799565b9050919050565b5f81905092915050565b50565b5f6107f15f836107d9565b91506107fc826107e3565b5f82019050919050565b5f610810826107e6565b9150819050919050565b7f455448207472616e73666572206661696c6564000000000000000000000000005f82015250565b5f61084e6013836106d3565b91506108598261081a565b602082019050919050565b5f6020820190508181035f83015261087b81610842565b9050919050565b7f536f7272792c206f7574206f662073746f636b210000000000000000000000005f82015250565b5f6108b66014836106d3565b91506108c182610882565b602082019050919050565b5f6020820190508181035f8301526108e3816108aa565b9050919050565b7f596f75206d757374207061792065786163746c7920302e3031204554482070655f8201527f7220736f64612e00000000000000000000000000000000000000000000000000602082015250565b5f6109446027836106d3565b915061094f826108ea565b604082019050919050565b5f6020820190508181035f83015261097181610938565b9050919050565b7f4e487b71000000000000000000000000000000000000000000000000000000005f52601160045260245ffd5b5f6109af826105d6565b91507fffffffffffffffffffffffffffffffffffffffffffffffffffffffffffffffff82036109e1576109e0610978565b5b600182019050919050565b5f6109f6826105d6565b9150610a01836105d6565b9250828203905081811115610a1957610a18610978565b5b92915050565b5f610a29826105d6565b9150610a34836105d6565b9250828201905080821115610a4c57610a4b610978565b5b9291505056fea2646970667358221220dce0e6c3cb65a1aadffe11dff3a7bf4b2d1c6ba2c647a0ec321ea855bdde810c64736f6c634300081f0033",
					"opcodes": "PUSH1 0x80 PUSH1 0x40 MSTORE CALLVALUE DUP1 ISZERO PUSH1 0xE JUMPI PUSH0 PUSH0 REVERT JUMPDEST POP CALLER PUSH0 PUSH0 PUSH2 0x100 EXP DUP2 SLOAD DUP2 PUSH20 0xFFFFFFFFFFFFFFFFFFFFFFFFFFFFFFFFFFFFFFFF MUL NOT AND SWAP1 DUP4 PUSH20 0xFFFFFFFFFFFFFFFFFFFFFFFFFFFFFFFFFFFFFFFF AND MUL OR SWAP1 SSTORE POP PUSH1 0x64 PUSH1 0x1 DUP2 SWAP1 SSTORE POP PUSH2 0xA88 DUP1 PUSH2 0x63 PUSH0 CODECOPY PUSH0 RETURN INVALID PUSH1 0x80 PUSH1 0x40 MSTORE PUSH1 0x4 CALLDATASIZE LT PUSH2 0x6F JUMPI PUSH0 CALLDATALOAD PUSH1 0xE0 SHR DUP1 PUSH4 0x39913E09 GT PUSH2 0x4D JUMPI DUP1 PUSH4 0x39913E09 EQ PUSH2 0x105 JUMPI DUP1 PUSH4 0x3DB8CBCC EQ PUSH2 0x11B JUMPI DUP1 PUSH4 0x8DA5CB5B EQ PUSH2 0x125 JUMPI DUP1 PUSH4 0xC21A702A EQ PUSH2 0x14F JUMPI PUSH2 0x6F JUMP JUMPDEST DUP1 PUSH4 0xEA6991A EQ PUSH2 0x73 JUMPI DUP1 PUSH4 0x12065FE0 EQ PUSH2 0xB1 JUMPI DUP1 PUSH4 0x2470B2A0 EQ PUSH2 0xDB JUMPI JUMPDEST PUSH0 PUSH0 REVERT JUMPDEST CALLVALUE DUP1 ISZERO PUSH2 0x7E JUMPI PUSH0 PUSH0 REVERT JUMPDEST POP PUSH2 0x99 PUSH1 0x4 DUP1 CALLDATASIZE SUB DUP2 ADD SWAP1 PUSH2 0x94 SWAP2 SWAP1 PUSH2 0x5AB JUMP JUMPDEST PUSH2 0x177 JUMP JUMPDEST PUSH1 0x40 MLOAD PUSH2 0xA8 SWAP4 SWAP3 SWAP2 SWAP1 PUSH2 0x608 JUMP JUMPDEST PUSH1 0x40 MLOAD DUP1 SWAP2 SUB SWAP1 RETURN JUMPDEST CALLVALUE DUP1 ISZERO PUSH2 0xBC JUMPI PUSH0 PUSH0 REVERT JUMPDEST POP PUSH2 0xC5 PUSH2 0x1A9 JUMP JUMPDEST PUSH1 0x40 MLOAD PUSH2 0xD2 SWAP2 SWAP1 PUSH2 0x63D JUMP JUMPDEST PUSH1 0x40 MLOAD DUP1 SWAP2 SUB SWAP1 RETURN JUMPDEST CALLVALUE DUP1 ISZERO PUSH2 0xE6 JUMPI PUSH0 PUSH0 REVERT JUMPDEST POP PUSH2 0xEF PUSH2 0x1B0 JUMP JUMPDEST PUSH1 0x40 MLOAD PUSH2 0xFC SWAP2 SWAP1 PUSH2 0x63D JUMP JUMPDEST PUSH1 0x40 MLOAD DUP1 SWAP2 SUB SWAP1 RETURN JUMPDEST CALLVALUE DUP1 ISZERO PUSH2 0x110 JUMPI PUSH0 PUSH0 REVERT JUMPDEST POP PUSH2 0x119 PUSH2 0x1B6 JUMP JUMPDEST STOP JUMPDEST PUSH2 0x123 PUSH2 0x356 JUMP JUMPDEST STOP JUMPDEST CALLVALUE DUP1 ISZERO PUSH2 0x130 JUMPI PUSH0 PUSH0 REVERT JUMPDEST POP PUSH2 0x139 PUSH2 0x484 JUMP JUMPDEST PUSH1 0x40 MLOAD PUSH2 0x146 SWAP2 SWAP1 PUSH2 0x665 JUMP JUMPDEST PUSH1 0x40 MLOAD DUP1 SWAP2 SUB SWAP1 RETURN JUMPDEST CALLVALUE DUP1 ISZERO PUSH2 0x15A JUMPI PUSH0 PUSH0 REVERT JUMPDEST POP PUSH2 0x175 PUSH1 0x4 DUP1 CALLDATASIZE SUB DUP2 ADD SWAP1 PUSH2 0x170 SWAP2 SWAP1 PUSH2 0x6A8 JUMP JUMPDEST PUSH2 0x4A8 JUMP JUMPDEST STOP JUMPDEST PUSH1 0x2 PUSH1 0x20 MSTORE DUP1 PUSH0 MSTORE PUSH1 0x40 PUSH0 KECCAK256 PUSH0 SWAP2 POP SWAP1 POP DUP1 PUSH0 ADD SLOAD SWAP1 DUP1 PUSH1 0x1 ADD SLOAD SWAP1 DUP1 PUSH1 0x2 ADD PUSH0 SWAP1 SLOAD SWAP1 PUSH2 0x100 EXP SWAP1 DIV PUSH1 0xFF AND SWAP1 POP DUP4 JUMP JUMPDEST PUSH0 SELFBALANCE SWAP1 POP SWAP1 JUMP JUMPDEST PUSH1 0x1 SLOAD DUP2 JUMP JUMPDEST PUSH0 PUSH0 SWAP1 SLOAD SWAP1 PUSH2 0x100 EXP SWAP1 DIV PUSH20 0xFFFFFFFFFFFFFFFFFFFFFFFFFFFFFFFFFFFFFFFF AND PUSH20 0xFFFFFFFFFFFFFFFFFFFFFFFFFFFFFFFFFFFFFFFF AND CALLER PUSH20 0xFFFFFFFFFFFFFFFFFFFFFFFFFFFFFFFFFFFFFFFF AND EQ PUSH2 0x244 JUMPI PUSH1 0x40 MLOAD PUSH32 0x8C379A000000000000000000000000000000000000000000000000000000000 DUP2 MSTORE PUSH1 0x4 ADD PUSH2 0x23B SWAP1 PUSH2 0x753 JUMP JUMPDEST PUSH1 0x40 MLOAD DUP1 SWAP2 SUB SWAP1 REVERT JUMPDEST PUSH0 SELFBALANCE SWAP1 POP PUSH0 DUP2 GT PUSH2 0x28A JUMPI PUSH1 0x40 MLOAD PUSH32 0x8C379A000000000000000000000000000000000000000000000000000000000 DUP2 MSTORE PUSH1 0x4 ADD PUSH2 0x281 SWAP1 PUSH2 0x7BB JUMP JUMPDEST PUSH1 0x40 MLOAD DUP1 SWAP2 SUB SWAP1 REVERT JUMPDEST PUSH0 PUSH0 PUSH0 SWAP1 SLOAD SWAP1 PUSH2 0x100 EXP SWAP1 DIV PUSH20 0xFFFFFFFFFFFFFFFFFFFFFFFFFFFFFFFFFFFFFFFF AND PUSH20 0xFFFFFFFFFFFFFFFFFFFFFFFFFFFFFFFFFFFFFFFF AND DUP3 PUSH1 0x40 MLOAD PUSH2 0x2CF SWAP1 PUSH2 0x806 JUMP JUMPDEST PUSH0 PUSH1 0x40 MLOAD DUP1 DUP4 SUB DUP2 DUP6 DUP8 GAS CALL SWAP3 POP POP POP RETURNDATASIZE DUP1 PUSH0 DUP2 EQ PUSH2 0x309 JUMPI PUSH1 0x40 MLOAD SWAP2 POP PUSH1 0x1F NOT PUSH1 0x3F RETURNDATASIZE ADD AND DUP3 ADD PUSH1 0x40 MSTORE RETURNDATASIZE DUP3 MSTORE RETURNDATASIZE PUSH0 PUSH1 0x20 DUP5 ADD RETURNDATACOPY PUSH2 0x30E JUMP JUMPDEST PUSH1 0x60 SWAP2 POP JUMPDEST POP POP SWAP1 POP DUP1 PUSH2 0x352 JUMPI PUSH1 0x40 MLOAD PUSH32 0x8C379A000000000000000000000000000000000000000000000000000000000 DUP2 MSTORE PUSH1 0x4 ADD PUSH2 0x349 SWAP1 PUSH2 0x864 JUMP JUMPDEST PUSH1 0x40 MLOAD DUP1 SWAP2 SUB SWAP1 REVERT JUMPDEST POP POP JUMP JUMPDEST PUSH0 PUSH1 0x1 SLOAD GT PUSH2 0x39A JUMPI PUSH1 0x40 MLOAD PUSH32 0x8C379A000000000000000000000000000000000000000000000000000000000 DUP2 MSTORE PUSH1 0x4 ADD PUSH2 0x391 SWAP1 PUSH2 0x8CC JUMP JUMPDEST PUSH1 0x40 MLOAD DUP1 SWAP2 SUB SWAP1 REVERT JUMPDEST PUSH8 0xDE0B6B3A7640000 CALLVALUE EQ PUSH2 0x3E4 JUMPI PUSH1 0x40 MLOAD PUSH32 0x8C379A000000000000000000000000000000000000000000000000000000000 DUP2 MSTORE PUSH1 0x4 ADD PUSH2 0x3DB SWAP1 PUSH2 0x95A JUMP JUMPDEST PUSH1 0x40 MLOAD DUP1 SWAP2 SUB SWAP1 REVERT JUMPDEST PUSH0 PUSH1 0x2 PUSH0 CALLER PUSH20 0xFFFFFFFFFFFFFFFFFFFFFFFFFFFFFFFFFFFFFFFF AND PUSH20 0xFFFFFFFFFFFFFFFFFFFFFFFFFFFFFFFFFFFFFFFF AND DUP2 MSTORE PUSH1 0x20 ADD SWAP1 DUP2 MSTORE PUSH1 0x20 ADD PUSH0 KECCAK256 SWAP1 POP DUP1 PUSH0 ADD PUSH0 DUP2 SLOAD DUP1 SWAP3 SWAP2 SWAP1 PUSH2 0x437 SWAP1 PUSH2 0x9A5 JUMP JUMPDEST SWAP2 SWAP1 POP SSTORE POP PUSH1 0x5 DUP2 PUSH0 ADD SLOAD LT PUSH2 0x46D JUMPI PUSH1 0x1 DUP2 PUSH1 0x2 ADD PUSH0 PUSH2 0x100 EXP DUP2 SLOAD DUP2 PUSH1 0xFF MUL NOT AND SWAP1 DUP4 ISZERO ISZERO MUL OR SWAP1 SSTORE POP TIMESTAMP DUP2 PUSH1 0x1 ADD DUP2 SWAP1 SSTORE POP JUMPDEST PUSH1 0x1 DUP1 SLOAD PUSH2 0x47B SWAP2 SWAP1 PUSH2 0x9EC JUMP JUMPDEST PUSH1 0x1 DUP2 SWAP1 SSTORE POP POP JUMP JUMPDEST PUSH0 PUSH0 SWAP1 SLOAD SWAP1 PUSH2 0x100 EXP SWAP1 DIV PUSH20 0xFFFFFFFFFFFFFFFFFFFFFFFFFFFFFFFFFFFFFFFF AND DUP2 JUMP JUMPDEST PUSH0 PUSH0 SWAP1 SLOAD SWAP1 PUSH2 0x100 EXP SWAP1 DIV PUSH20 0xFFFFFFFFFFFFFFFFFFFFFFFFFFFFFFFFFFFFFFFF AND PUSH20 0xFFFFFFFFFFFFFFFFFFFFFFFFFFFFFFFFFFFFFFFF AND CALLER PUSH20 0xFFFFFFFFFFFFFFFFFFFFFFFFFFFFFFFFFFFFFFFF AND EQ PUSH2 0x536 JUMPI PUSH1 0x40 MLOAD PUSH32 0x8C379A000000000000000000000000000000000000000000000000000000000 DUP2 MSTORE PUSH1 0x4 ADD PUSH2 0x52D SWAP1 PUSH2 0x753 JUMP JUMPDEST PUSH1 0x40 MLOAD DUP1 SWAP2 SUB SWAP1 REVERT JUMPDEST DUP1 PUSH1 0x1 SLOAD PUSH2 0x544 SWAP2 SWAP1 PUSH2 0xA1F JUMP JUMPDEST PUSH1 0x1 DUP2 SWAP1 SSTORE POP POP JUMP JUMPDEST PUSH0 PUSH0 REVERT JUMPDEST PUSH0 PUSH20 0xFFFFFFFFFFFFFFFFFFFFFFFFFFFFFFFFFFFFFFFF DUP3 AND SWAP1 POP SWAP2 SWAP1 POP JUMP JUMPDEST PUSH0 PUSH2 0x57A DUP3 PUSH2 0x551 JUMP JUMPDEST SWAP1 POP SWAP2 SWAP1 POP JUMP JUMPDEST PUSH2 0x58A DUP2 PUSH2 0x570 JUMP JUMPDEST DUP2 EQ PUSH2 0x594 JUMPI PUSH0 PUSH0 REVERT JUMPDEST POP JUMP JUMPDEST PUSH0 DUP2 CALLDATALOAD SWAP1 POP PUSH2 0x5A5 DUP2 PUSH2 0x581 JUMP JUMPDEST SWAP3 SWAP2 POP POP JUMP JUMPDEST PUSH0 PUSH1 0x20 DUP3 DUP5 SUB SLT ISZERO PUSH2 0x5C0 JUMPI PUSH2 0x5BF PUSH2 0x54D JUMP JUMPDEST JUMPDEST PUSH0 PUSH2 0x5CD DUP5 DUP3 DUP6 ADD PUSH2 0x597 JUMP JUMPDEST SWAP2 POP POP SWAP3 SWAP2 POP POP JUMP JUMPDEST PUSH0 DUP2 SWAP1 POP SWAP2 SWAP1 POP JUMP JUMPDEST PUSH2 0x5E8 DUP2 PUSH2 0x5D6 JUMP JUMPDEST DUP3 MSTORE POP POP JUMP JUMPDEST PUSH0 DUP2 ISZERO ISZERO SWAP1 POP SWAP2 SWAP1 POP JUMP JUMPDEST PUSH2 0x602 DUP2 PUSH2 0x5EE JUMP JUMPDEST DUP3 MSTORE POP POP JUMP JUMPDEST PUSH0 PUSH1 0x60 DUP3 ADD SWAP1 POP PUSH2 0x61B PUSH0 DUP4 ADD DUP7 PUSH2 0x5DF JUMP JUMPDEST PUSH2 0x628 PUSH1 0x20 DUP4 ADD DUP6 PUSH2 0x5DF JUMP JUMPDEST PUSH2 0x635 PUSH1 0x40 DUP4 ADD DUP5 PUSH2 0x5F9 JUMP JUMPDEST SWAP5 SWAP4 POP POP POP POP JUMP JUMPDEST PUSH0 PUSH1 0x20 DUP3 ADD SWAP1 POP PUSH2 0x650 PUSH0 DUP4 ADD DUP5 PUSH2 0x5DF JUMP JUMPDEST SWAP3 SWAP2 POP POP JUMP JUMPDEST PUSH2 0x65F DUP2 PUSH2 0x570 JUMP JUMPDEST DUP3 MSTORE POP POP JUMP JUMPDEST PUSH0 PUSH1 0x20 DUP3 ADD SWAP1 POP PUSH2 0x678 PUSH0 DUP4 ADD DUP5 PUSH2 0x656 JUMP JUMPDEST SWAP3 SWAP2 POP POP JUMP JUMPDEST PUSH2 0x687 DUP2 PUSH2 0x5D6 JUMP JUMPDEST DUP2 EQ PUSH2 0x691 JUMPI PUSH0 PUSH0 REVERT JUMPDEST POP JUMP JUMPDEST PUSH0 DUP2 CALLDATALOAD SWAP1 POP PUSH2 0x6A2 DUP2 PUSH2 0x67E JUMP JUMPDEST SWAP3 SWAP2 POP POP JUMP JUMPDEST PUSH0 PUSH1 0x20 DUP3 DUP5 SUB SLT ISZERO PUSH2 0x6BD JUMPI PUSH2 0x6BC PUSH2 0x54D JUMP JUMPDEST JUMPDEST PUSH0 PUSH2 0x6CA DUP5 DUP3 DUP6 ADD PUSH2 0x694 JUMP JUMPDEST SWAP2 POP POP SWAP3 SWAP2 POP POP JUMP JUMPDEST PUSH0 DUP3 DUP3 MSTORE PUSH1 0x20 DUP3 ADD SWAP1 POP SWAP3 SWAP2 POP POP JUMP JUMPDEST PUSH32 0x4F6E6C7920746865206F776E65722063616E2063616C6C20746869732066756E PUSH0 DUP3 ADD MSTORE PUSH32 0x6374696F6E2E0000000000000000000000000000000000000000000000000000 PUSH1 0x20 DUP3 ADD MSTORE POP JUMP JUMPDEST PUSH0 PUSH2 0x73D PUSH1 0x26 DUP4 PUSH2 0x6D3 JUMP JUMPDEST SWAP2 POP PUSH2 0x748 DUP3 PUSH2 0x6E3 JUMP JUMPDEST PUSH1 0x40 DUP3 ADD SWAP1 POP SWAP2 SWAP1 POP JUMP JUMPDEST PUSH0 PUSH1 0x20 DUP3 ADD SWAP1 POP DUP2 DUP2 SUB PUSH0 DUP4 ADD MSTORE PUSH2 0x76A DUP2 PUSH2 0x731 JUMP JUMPDEST SWAP1 POP SWAP2 SWAP1 POP JUMP JUMPDEST PUSH32 0x4E6F2070726F6669747320746F2077697468647261772E000000000000000000 PUSH0 DUP3 ADD MSTORE POP JUMP JUMPDEST PUSH0 PUSH2 0x7A5 PUSH1 0x17 DUP4 PUSH2 0x6D3 JUMP JUMPDEST SWAP2 POP PUSH2 0x7B0 DUP3 PUSH2 0x771 JUMP JUMPDEST PUSH1 0x20 DUP3 ADD SWAP1 POP SWAP2 SWAP1 POP JUMP JUMPDEST PUSH0 PUSH1 0x20 DUP3 ADD SWAP1 POP DUP2 DUP2 SUB PUSH0 DUP4 ADD MSTORE PUSH2 0x7D2 DUP2 PUSH2 0x799 JUMP JUMPDEST SWAP1 POP SWAP2 SWAP1 POP JUMP JUMPDEST PUSH0 DUP2 SWAP1 POP SWAP3 SWAP2 POP POP JUMP JUMPDEST POP JUMP JUMPDEST PUSH0 PUSH2 0x7F1 PUSH0 DUP4 PUSH2 0x7D9 JUMP JUMPDEST SWAP2 POP PUSH2 0x7FC DUP3 PUSH2 0x7E3 JUMP JUMPDEST PUSH0 DUP3 ADD SWAP1 POP SWAP2 SWAP1 POP JUMP JUMPDEST PUSH0 PUSH2 0x810 DUP3 PUSH2 0x7E6 JUMP JUMPDEST SWAP2 POP DUP2 SWAP1 POP SWAP2 SWAP1 POP JUMP JUMPDEST PUSH32 0x455448207472616E73666572206661696C656400000000000000000000000000 PUSH0 DUP3 ADD MSTORE POP JUMP JUMPDEST PUSH0 PUSH2 0x84E PUSH1 0x13 DUP4 PUSH2 0x6D3 JUMP JUMPDEST SWAP2 POP PUSH2 0x859 DUP3 PUSH2 0x81A JUMP JUMPDEST PUSH1 0x20 DUP3 ADD SWAP1 POP SWAP2 SWAP1 POP JUMP JUMPDEST PUSH0 PUSH1 0x20 DUP3 ADD SWAP1 POP DUP2 DUP2 SUB PUSH0 DUP4 ADD MSTORE PUSH2 0x87B DUP2 PUSH2 0x842 JUMP JUMPDEST SWAP1 POP SWAP2 SWAP1 POP JUMP JUMPDEST PUSH32 0x536F7272792C206F7574206F662073746F636B21000000000000000000000000 PUSH0 DUP3 ADD MSTORE POP JUMP JUMPDEST PUSH0 PUSH2 0x8B6 PUSH1 0x14 DUP4 PUSH2 0x6D3 JUMP JUMPDEST SWAP2 POP PUSH2 0x8C1 DUP3 PUSH2 0x882 JUMP JUMPDEST PUSH1 0x20 DUP3 ADD SWAP1 POP SWAP2 SWAP1 POP JUMP JUMPDEST PUSH0 PUSH1 0x20 DUP3 ADD SWAP1 POP DUP2 DUP2 SUB PUSH0 DUP4 ADD MSTORE PUSH2 0x8E3 DUP2 PUSH2 0x8AA JUMP JUMPDEST SWAP1 POP SWAP2 SWAP1 POP JUMP JUMPDEST PUSH32 0x596F75206D757374207061792065786163746C7920302E303120455448207065 PUSH0 DUP3 ADD MSTORE PUSH32 0x7220736F64612E00000000000000000000000000000000000000000000000000 PUSH1 0x20 DUP3 ADD MSTORE POP JUMP JUMPDEST PUSH0 PUSH2 0x944 PUSH1 0x27 DUP4 PUSH2 0x6D3 JUMP JUMPDEST SWAP2 POP PUSH2 0x94F DUP3 PUSH2 0x8EA JUMP JUMPDEST PUSH1 0x40 DUP3 ADD SWAP1 POP SWAP2 SWAP1 POP JUMP JUMPDEST PUSH0 PUSH1 0x20 DUP3 ADD SWAP1 POP DUP2 DUP2 SUB PUSH0 DUP4 ADD MSTORE PUSH2 0x971 DUP2 PUSH2 0x938 JUMP JUMPDEST SWAP1 POP SWAP2 SWAP1 POP JUMP JUMPDEST PUSH32 0x4E487B7100000000000000000000000000000000000000000000000000000000 PUSH0 MSTORE PUSH1 0x11 PUSH1 0x4 MSTORE PUSH1 0x24 PUSH0 REVERT JUMPDEST PUSH0 PUSH2 0x9AF DUP3 PUSH2 0x5D6 JUMP JUMPDEST SWAP2 POP PUSH32 0xFFFFFFFFFFFFFFFFFFFFFFFFFFFFFFFFFFFFFFFFFFFFFFFFFFFFFFFFFFFFFFFF DUP3 SUB PUSH2 0x9E1 JUMPI PUSH2 0x9E0 PUSH2 0x978 JUMP JUMPDEST JUMPDEST PUSH1 0x1 DUP3 ADD SWAP1 POP SWAP2 SWAP1 POP JUMP JUMPDEST PUSH0 PUSH2 0x9F6 DUP3 PUSH2 0x5D6 JUMP JUMPDEST SWAP2 POP PUSH2 0xA01 DUP4 PUSH2 0x5D6 JUMP JUMPDEST SWAP3 POP DUP3 DUP3 SUB SWAP1 POP DUP2 DUP2 GT ISZERO PUSH2 0xA19 JUMPI PUSH2 0xA18 PUSH2 0x978 JUMP JUMPDEST JUMPDEST SWAP3 SWAP2 POP POP JUMP JUMPDEST PUSH0 PUSH2 0xA29 DUP3 PUSH2 0x5D6 JUMP JUMPDEST SWAP2 POP PUSH2 0xA34 DUP4 PUSH2 0x5D6 JUMP JUMPDEST SWAP3 POP DUP3 DUP3 ADD SWAP1 POP DUP1 DUP3 GT ISZERO PUSH2 0xA4C JUMPI PUSH2 0xA4B PUSH2 0x978 JUMP JUMPDEST JUMPDEST SWAP3 SWAP2 POP POP JUMP INVALID LOG2 PUSH5 0x6970667358 0x22 SLT KECCAK256 0xDC RJUMP 0xE6C3 0xCB PUSH6 0xA1AADFFE11DF RETURN 0xA7 0xBF 0x4B 0x2D SHR PUSH12 0xA2C647A0EC321EA855BDDE81 0xC PUSH5 0x736F6C6343 STOP ADDMOD 0x1F STOP CALLER "
				},
				"gasEstimates": {
					"creation": {
						"codeDepositCost": "539200",
						"executionCost": "46951",
						"totalCost": "586151"
					},
					"external": {
						"buySoda()": "infinite",
						"getBalance()": "357",
						"owner()": "2551",
						"restock(uint256)": "infinite",
						"sodaInventory()": "2470",
						"sodapurchased(address)": "infinite",
						"withdrawProfits()": "infinite"
					}
				},
				"methodIdentifiers": {
					"buySoda()": "3db8cbcc",
					"getBalance()": "12065fe0",
					"owner()": "8da5cb5b",
					"restock(uint256)": "c21a702a",
					"sodaInventory()": "2470b2a0",
					"sodapurchased(address)": "0ea6991a",
					"withdrawProfits()": "39913e09"
				}
			},
			"storageLayout": {
				"storage": [
					{
						"astId": 4,
						"contract": "01_hello.sol:VendingMachine",
						"label": "owner",
						"offset": 0,
						"slot": "0",
						"type": "t_address"
					},
					{
						"astId": 6,
						"contract": "01_hello.sol:VendingMachine",
						"label": "sodaInventory",
						"offset": 0,
						"slot": "1",
						"type": "t_uint256"
					},
					{
						"astId": 18,
						"contract": "01_hello.sol:VendingMachine",
						"label": "sodapurchased",
						"offset": 0,
						"slot": "2",
						"type": "t_mapping(t_address,t_struct(customer)13_storage)"
					}
				],
				"types": {
					"t_address": {
						"encoding": "inplace",
						"label": "address",
						"numberOfBytes": "20"
					},
					"t_bool": {
						"encoding": "inplace",
						"label": "bool",
						"numberOfBytes": "1"
					},
					"t_mapping(t_address,t_struct(customer)13_storage)": {
						"encoding": "mapping",
						"key": "t_address",
						"label": "mapping(address => struct VendingMachine.customer)",
						"numberOfBytes": "32",
						"value": "t_struct(customer)13_storage"
					},
					"t_struct(customer)13_storage": {
						"encoding": "inplace",
						"label": "struct VendingMachine.customer",
						"members": [
							{
								"astId": 8,
								"contract": "01_hello.sol:VendingMachine",
								"label": "sodaBought",
								"offset": 0,
								"slot": "0",
								"type": "t_uint256"
							},
							{
								"astId": 10,
								"contract": "01_hello.sol:VendingMachine",
								"label": "lastPurchased",
								"offset": 0,
								"slot": "1",
								"type": "t_uint256"
							},
							{
								"astId": 12,
								"contract": "01_hello.sol:VendingMachine",
								"label": "vip",
								"offset": 0,
								"slot": "2",
								"type": "t_bool"
							}
						],
						"numberOfBytes": "96"
					},
					"t_uint256": {
						"encoding": "inplace",
						"label": "uint256",
						"numberOfBytes": "32"
					}
				}
			},
			"userdoc": {
				"kind": "user",
				"methods": {},
				"version": 1
			}
		}
	}
}